:020000040800F2
:100000000000012009170008C1130008C3130008ED
:10001000C5130008C7130008C9130008000000003A
:10002000000000000000000000000000CB130008EA
:10003000CD13000800000000CF130008D113000802
:1000400051170008511700085117000851170008F0
:1000500051170008511700085117000851170008E0
:10006000511700085117000851170008D91300084C
:100070005117000851170008E9130008F913000888
:1000800051170008511700085117000851170008B0
:1000900009140008511700085117000851170008EB
:1000A0005117000851170008511700085117000890
:1000B0005117000851170008511700085117000880
:1000C0005117000851170008511700085117000870
:1000D000511700081914000851170008511700089B
:1000E0005117000851170008511700085117000850
:1000F0005117000851170008511700085117000840
:10010000511700085117000851170008511700082F
:10011000511700085117000851170008511700081F
:10012000511700085117000851170008511700080F
:1001300000000000000000000000000000000000BF
:1001400000000000000000000000000000000000AF
:10015000000000000000000000000000000000009F
:10016000000000000000000000000000000000008F
:10017000000000000000000000000000000000007F
:10018000000000000000000000000000000000006F
:10019000000000000000000000000000000000005F
:1001A000000000000000000000000000000000004F
:1001B000000000000000000000000000000000003F
:1001C000000000000000000000000000000000002F
:1001D000000000000000000000000000000000001F
:0401E0005FF8E0F1F3
:1001E80010B5054C237833B9044B13B10448AFF369
:1001F80000800123237010BD280B002000000000A0
:100208001CCF000808B5034B1BB103490348AFF3E3
:10021800008008BD000000002C0B00201CCF000847
:10022800844641EA000313F0030349D1403A23D33B
:100238000B6803604B6843608B688360CB68C3605E
:100248000B6903614B6943618B698361CB69C36146
:100258000B6A03624B6A43628B6A8362CB6AC3622E
:100268000B6B03634B6B43638B6B8363CB6BC36316
:1002780040304031403ADBD230320BD30B68036058
:100288004B6843608B688360CB68C3601030103163
:10029800103AF3D20C3205D351F8043B40F8043B32
:1002A800043AF9D2043208D0D2071CBF11F8013B36
:1002B80000F8013B01D30B8803806046704700BFFC
:1002C800082A13D38B07B1D010F00303AED0C3F1C3
:1002D8000403D21ADB071CBF11F8013B00F8013BED
:1002E800A4D331F8023B20F8023B9FE7043AD9D364
:1002F800013A11F8013B00F8013BF9D20B78037081
:100308004B7843708B7883706046704781F000416A
:1003180002E000BF83F0004330B54FEA41044FEAE2
:10032800430594EA050F08BF90EA020F1FBF54EA7D
:10033800000C55EA020C7FEA645C7FEA655C00F019
:10034800E2804FEA5454D4EB5555B8BF6D420CDDEA
:100358002C4480EA020281EA030382EA000083EA6D
:10036800010180EA020281EA0303362D88BF30BD0D
:1003780011F0004F4FEA01314FF4801C4CEA113163
:1003880002D0404261EB410113F0004F4FEA0333C2
:100398004CEA133302D0524263EB430394EA050F4D
:1003A80000F0A780A4F10104D5F1200E0DDB02FABC
:1003B8000EFC22FA05F2801841F1000103FA0EF250
:1003C800801843FA05F359410EE0A5F120050EF116
:1003D800200E012A03FA0EFC28BF4CF0020C43FA47
:1003E80005F3C01851EBE37101F0004507D54FF054
:1003F800000EDCF1000C7EEB00006EEB0101B1F5A4
:10040800801F1BD3B1F5001F0CD349085FEA3000E9
:100418004FEA3C0C04F101044FEA445212F5800FF4
:1004280080F09A80BCF1004F08BF5FEA500C50F191
:10043800000041EB045141EA050130BD5FEA4C0C74
:10044800404141EB0101013C28BFB1F5801FE9D2D1
:1004580091F0000F04BF01460020B1FA81F308BFF4
:100468002033A3F10B03B3F120020CDA0C3208DDC0
:1004780002F1140CC2F10C0201FA0CF021FA02F19B
:100488000CE002F11402D8BFC2F1200C01FA02F10B
:1004980020FA0CFCDCBF41EA0C019040E41AA2BF30
:1004A80001EB0451294330BD6FEA04041F3C1CDAF8
:1004B8000C340EDC04F11404C4F1200220FA04F018
:1004C80001FA02F340EA030021FA04F345EA0301C2
:1004D80030BDC4F10C04C4F1200220FA02F001FA84
:1004E80004F340EA0300294630BD21FA04F0294606
:1004F80030BD94F0000F83F4801306BF81F480119F
:100508000134013D4EE77FEA645C18BF7FEA655C11
:1005180029D094EA050F08BF90EA020F05D054EAE3
:10052800000C04BF1946104630BD91EA030F1EBFE8
:100538000021002030BD5FEA545C05D140004941EC
:1005480028BF41F0004130BD14F580043CBF01F5DF
:10055800801130BD01F0004545F0FE4141F47001C5
:100568004FF0000030BD7FEA645C1ABF19461046A0
:100578007FEA655C1CBF0B46024650EA013406BFA1
:1005880052EA033591EA030F41F4002130BD00BF60
:1005980090F0000F04BF0021704730B54FF480641D
:1005A80004F132044FF000054FF0000150E700BF9E
:1005B80090F0000F04BF0021704730B54FF48064FD
:1005C80004F1320410F0004548BF40424FF00001EA
:1005D8003EE700BF42004FEAE2014FEA31014FEA2D
:1005E80002701FBF12F07F4393F07F4F81F060517C
:1005F800704732F07F4208BF704793F07F4F04BFC7
:1006080041F40021704730B54FF4607401F00045A3
:1006180021F000411CE700BF50EA010208BF704703
:1006280030B54FF000050AE050EA010208BF7047F4
:1006380030B511F0004502D5404261EB41014FF45D
:10064800806404F132045FEA915C3FF4D8AE4FF065
:1006580003025FEADC0C18BF03325FEADC0C18BF48
:10066800033202EBDC02C2F1200300FA03FC20FA99
:1006780002F001FA03FE40EA0E0021FA02F11444E6
:10068800BDE600BF70B54FF0FF0C4CF4E06C1CEAFF
:1006980011541DBF1CEA135594EA0C0F95EA0C0F70
:1006A80000F0DEF82C4481EA030621EA4C5123EAE3
:1006B8004C5350EA013518BF52EA033541F4801112
:1006C80043F4801338D0A0FB02CE4FF00005E1FBC5
:1006D80002E506F00042E0FB03E54FF00006E1FB0F
:1006E80003569CF0000F18BF4EF0010EA4F1FF0452
:1006F800B6F5007F64F5407404D25FEA4E0E6D4192
:1007080046EB060642EAC62141EA55514FEAC520A2
:1007180040EA5E504FEACE2EB4F1FD0C88BFBCF51E
:10072800E06F1ED8BEF1004F08BF5FEA500E50F1CF
:10073800000041EB045170BD06F0004646EA010195
:1007480040EA020081EA0301B4EB5C04C2BFD4EBC7
:100758000C0541EA045170BD41F480114FF0000EC0
:10076800013C00F3AB8014F1360FDEBF002001F02E
:10077800004170BDC4F10004203C35DA0C341BDCA8
:1007880004F11404C4F1200500FA05F320FA04F07A
:1007980001FA05F240EA020001F0004221F00041AE
:1007A80010EBD37021FA04F642EB06015EEA430E21
:1007B80008BF20EAD37070BDC4F10C04C4F1200551
:1007C80000FA04F320FA05F001FA04F240EA020004
:1007D80001F0004110EBD37041F100015EEA430ED5
:1007E80008BF20EAD37070BDC4F1200500FA05F2F5
:1007F8004EEA020E20FA04F301FA05F243EA020374
:1008080021FA04F001F0004121FA04F220EA020082
:1008180000EBD3705EEA430E08BF20EAD37070BDC8
:1008280094F0000F0FD101F00046400041EB0101A8
:1008380011F4801F08BF013CF7D041EA060195F08A
:10084800000F18BF704703F00046520043EB030344
:1008580013F4801F08BF013DF7D043EA0603704731
:1008680094EA0C0F0CEA135518BF95EA0C0F0CD03C
:1008780050EA410618BF52EA4306D1D181EA030182
:1008880001F000414FF0000070BD50EA410606BF7C
:100898001046194652EA430619D094EA0C0F02D1C1
:1008A80050EA013613D195EA0C0F05D152EA033606
:1008B8001CBF104619460AD181EA030101F0004124
:1008C80041F0FE4141F470014FF0000070BD41F06D
:1008D800FE4141F4780170BD70B54FF0FF0C4CF447
:1008E800E06C1CEA11541DBF1CEA135594EA0C0F66
:1008F80095EA0C0F00F0A7F8A4EB050481EA030EB3
:1009080052EA03354FEA013100F088804FEA033399
:100918004FF0805545EA131343EA12634FEA022267
:1009280045EA111545EA10654FEA00260EF0004128
:100938009D4208BF964244F1FD0404F5407402D27A
:100948005B084FEA3202B61A65EB03055B084FEA0B
:1009580032024FF480104FF4002CB6EB020E75EB08
:10096800030E22BFB61A754640EA0C005B084FEA30
:100978003202B6EB020E75EB030E22BFB61A7546AD
:1009880040EA5C005B084FEA3202B6EB020E75EBF8
:10099800030E22BFB61A754640EA9C005B084FEA70
:1009A8003202B6EB020E75EB030E22BFB61A75467D
:1009B80040EADC0055EA060E18D04FEA051545EA6C
:1009C80016754FEA06164FEAC30343EA52734FEA15
:1009D800C2025FEA1C1CC0D111F4801F0BD141EA8E
:1009E80000014FF000004FF0004CB6E711F4801FF3
:1009F80004BF01430020B4F1FD0C88BFBCF5E06FD3
:100A08003FF6AFAEB5EB030C04BFB6EB020C5FEAE2
:100A1800500C50F1000041EB045170BD0EF0004E37
:100A28004EEA113114EB5C04C2BFD4EB0C0541EA69
:100A3800045170BD41F480114FF0000E013C90E666
:100A480045EA060E8DE60CEA135594EA0C0F08BF2A
:100A580095EA0C0F3FF43BAF94EA0C0F0AD150EA29
:100A680001347FF434AF95EA0C0F7FF425AF1046BC
:100A780019462CE795EA0C0F06D152EA03353FF4E4
:100A8800FDAE1046194622E750EA410618BF52EA61
:100A980043067FF4C5AE50EA41047FF40DAF52EA35
:100AA80043057FF4EBAE12E74FF0FF3C06E000BFD2
:100AB8004FF0010C02E000BF4FF0010C4DF804CDDF
:100AC8004FEA410C7FEA6C5C4FEA430C18BF7FEA9F
:100AD8006C5C1BD001B050EA410C0CBF52EA430CCD
:100AE80091EA030F02BF90EA020F0020704710F14D
:100AF800000F91EA030F58BF994208BF90422CBFDC
:100B0800D8176FEAE37040F0010070474FEA410CD4
:100B18007FEA6C5C02D150EA013C07D14FEA430CF2
:100B28007FEA6C5CD6D152EA033CD3D05DF8040B63
:100B3800704700BF8446104662468C461946634695
:100B480000E000BF01B5FFF7B7FF002848BF10F16C
:100B5800000F01BD4DF808EDFFF7F4FF0CBF0120B1
:100B680000205DF808FB00BF4DF808EDFFF7EAFF2D
:100B780034BF012000205DF808FB00BF4DF808EDE8
:100B8800FFF7E0FF94BF012000205DF808FB00BFDD
:100B98004DF808EDFFF7CEFF94BF012000205DF867
:100BA80008FB00BF4DF808EDFFF7C4FF34BF012074
:100BB80000205DF808FB00BF4FEA410C7FEA6C5C3F
:100BC80002D150EA013C0AD14FEA430C7FEA6C5C3F
:100BD80002D152EA033C02D14FF0000070474FF0B7
:100BE800010070474FEA410212F5001215D211D5E3
:100BF8006FF47873B3EB625212D94FEAC12343F012
:100C0800004343EA505311F0004F23FA02F018BF93
:100C1800404270474FF00000704750EA013005D15C
:100C280011F0004008BF6FF0004070474FF000001F
:100C3800704700BF53B94AB9002908BF00281CBF34
:100C48004FF0FF314FF0FF3000F076B9ADF1080CEE
:100C58006DE904CE00F006F8DDF804E0DDE90223D2
:100C680004B070472DE9F047089E0D4604468846B3
:100C7800002B4DD18A42944668D9B2FA82F252B119
:100C880001FA02F3C2F1200120FA01F10CFA02FC88
:100C980041EA030894404FEA1C41B8FBF1F71FFAF8
:100CA8008CFE01FB178807FB0EF0230C43EA084370
:100CB80098420AD91CEB030307F1FF3580F01E8127
:100CC800984240F21B81023F63441B1AB3FBF1F0C8
:100CD80001FB103300FB0EFEA4B244EA0344A64510
:100CE8000AD91CEB040400F1FF3380F00981A64502
:100CF80040F20681644402380021A4EB0E0440EA65
:100D080007401EB10023D440C6E90043BDE8F08780
:100D18008B4208D9002E00F0EE800021C6E90005BC
:100D28000846BDE8F087B3FA83F100294AD1AB42FF
:100D380002D3824200F2FC80841A65EB030301208F
:100D48009846002EE2D0C6E90048DFE702B9FFDE88
:100D5800B2FA82F2002A40F09180A1EB0C00012146
:100D68004FEA1C471FFA8CFEB0FBF7F307FB130092
:100D7800250C45EA00450EFB03F0A84208D91CEBF8
:100D8800050503F1FF3802D2A84200F2CE8043469F
:100D98002D1AB5FBF7F007FB10550EFB00FEA4B2A9
:100DA80044EA0544A64508D91CEB040400F1FF35C4
:100DB80002D2A64500F2B6802846A4EB0E0440EA0B
:100DC80003409EE7C1F120078B4022FA07FC4CEA5A
:100DD800030C25FA07FA4FEA1C49BAFBF9F820FA7E
:100DE80007F309FB18AA8D401FFA8CFE1D4300FA71
:100DF80001F308FB0EF02C0C44EA0A44A04202FA64
:100E080001F20BD91CEB040408F1FF3A80F088804A
:100E1800A04240F28580A8F102086444241AB4FB79
:100E2800F9F009FB104400FB0EFEADB245EA04449C
:100E3800A64508D91CEB040400F1FF356CD2A64581
:100E48006AD90238644440EA0840A0FB0295A4EB42
:100E58000E04AC42C846AE4656D353D0002E69D0D5
:100E6800B3EB080264EB0E0422FA01F304FA07F765
:100E78001F43CC40C6E90074002147E70CFA02FC86
:100E8800C2F1200125FA01F34FEA1C4720FA01F1CB
:100E980095400D43B3FBF7F107FB11331FFA8CFEA6
:100EA800280C40EA034001FB0EF3834204FA02F4E3
:100EB80008D91CEB000001F1FF382FD283422DD94D
:100EC80002396044C01AB0FBF7F307FB1300ADB258
:100ED80045EA004503FB0EF0A84208D91CEB0505BE
:100EE80003F1FF3816D2A84214D9023B6544281AE8
:100EF80043EA014138E73146304607E72F46E4E642
:100F08001846F9E64B45A9D2B9EB020865EB0C0E79
:100F18000138A3E74346EAE7284694E74146D1E784
:100F2800D0467BE76444023847E7023B65442FE735
:100F3800084606E73146E9E6704700BF00B585B0C8
:100F480000230193029303931848194A02604FF44F
:100F5800807282600122027303754FF46022C261BD
:100F680043600223036101F0BBF9A8B90023019390
:100F780001220292039301A90C4801F007F870B905
:100F8800012301930223029301A9084800F0FEFF00
:100F980040B905B05DF804FB00F0F8F8E6E700F0AA
:100FA800F5F8EDE700F0F2F8F3E700BF440B002096
:100FB8000024014010B586B00023029303930493E4
:100FC800059302681E4B9A4201D006B010BD044634
:100FD80003F56C439A6942F400729A619A6902F4C3
:100FE80000720092009A9A6942F004029A619B6921
:100FF80003F004030193019B03230293039302A9C3
:10100800104801F0D9FD1048104B036000234360DD
:1010180083608023C3604FF4807303614FF480635F
:101028004361202383614FF48053C36101F0EEFADA
:1010380018B9054B23625C62C7E700F0A7F8F8E728
:101048000024014000080140740B00200800024001
:1010580000B583B0124B5A6942F001025A615B69CC
:1010680003F001030193019B002211460B2001F0BC
:101078005DFA0B2001F092FA002211460E2001F0D1
:1010880055FA0E2001F08AFA002211460F2001F0CD
:101098004DFA0F2001F082FA03B05DF804FB00BF9F
:1010A800001002402DE9F04188B000240494059412
:1010B80006940794314B9A6942F020029A619A6922
:1010C80002F020020092009A9A6942F004029A61A2
:1010D8009A6902F004020192019A9A6942F0100298
:1010E8009A619A6902F010020292029A9A6942F091
:1010F80008029A619B6903F008030393039BDFF8D6
:10110800808022469021404601F076FE1D4F2246FF
:101118004FF48051384601F06FFE1B4E22463021B5
:10112800304601F069FE9023049301250595069445
:101138000224079404A9404601F03EFD4FF4805371
:10114800049305950695079404A9384601F034FDE3
:10115800102304930595069507940DEB030130467B
:1011680001F02AFD2023049305950694079404A909
:10117800304601F021FD08B0BDE8F08100100240C2
:101188000008014000100140000C014072B6FEE763
:1011980000B597B0282200210CA805F0E1FE002335
:1011A8000793089309930A930B930193029303936C
:1011B80004930593069301220C924FF480330D9308
:1011C80010920222139214934FF4E01315930CA873
:1011D80002F042FED8B90F23079302210891002399
:1011E80009934FF480620A920B9307A803F066F8FC
:1011F80078B9122301934FF4004303930023069315
:1012080001A803F037F930B917B05DF804FBFFF710
:10121800BDFFFFF7BBFFFFF7B9FF000008B500F0FF
:101228003FFEFFF7B5FFFFF73DFFFFF711FF00F0A7
:1012380061F905F08FFCFFF781FE00F03BF800F044
:10124800D9FD00F0E9F9144C204601F0DDF8C82278
:101258001249204600F080FF114800F0F5F90022FD
:101268008021104801F0C8FD20210F4801F0CAFD77
:101278000E4CD4F8C8319847D4F8CC319847D4F8F4
:10128800D03198474FF48051094801F0BBFD0A203E
:1012980000F02AFEECE700BF440B0020FC10002001
:1012A80038CF000800080140000C0140F810002069
:1012B8000010014008B51048104B03604FF48273CA
:1012C80043604FF4806383600023C360022202619D
:1012D80043614FF4007282611822C2618022026267
:1012E800436283620A23C36203F0CAF900B908BDE6
:1012F800FFF74CFFFBE700BFB80B002000300140B0
:1013080010B586B0002302930393049305930268F3
:10131800164B9A4201D006B010BD03F560439A6996
:1013280042F480529A619A6902F480520092009ABB
:101338009A6942F004029A619B6903F004030193DD
:10134800019B202302930223039303230593084C54
:1013580002A9204601F030FC4023029300230393A6
:10136800049302A9204601F027FCD4E7003001408D
:101378000008014082B00E4B9A6942F001029A615E
:101388009A6902F001020092009ADA6942F08052EA
:10139800DA61DB6903F080530193019B054A5368C6
:1013A80023F0E06343F00073536002B0704700BF5E
:1013B8000010024000000140FEE7FEE7FEE7FEE7FE
:1013C800FEE770477047704708B500F07BFD08BD21
:1013D80008B5024801F07AFA08BD00BF740B002076
:1013E80008B5024801F072FA08BD00BF580C002089
:1013F80008B5024801F06AFA08BD00BF140C0020C5
:1014080008B5024802F0F7FA08BD00BF501C0020DA
:1014180008B5064803F0D4FB054B4FF40072991841
:10142800D3F8100403F0BEFD08BD00BF9C0C0020DB
:10143800E40C00200120704708B505F067FD16236D
:1014480003604FF0FF3008BD08B54FF0FF31FFF7DC
:10145800F3FFFEE770B50C461646002506E0AFF32D
:101468000080214601F8010B01350C46B542F6DB38
:10147800304670BD70B50C461646002504E014F8D9
:10148800010BAFF300800135B542F8DB304670BD83
:101498004FF0FF3070474FF400534B600020704707
:1014A800012070470020704710B503460C4A0D49CB
:1014B8000D48006840B10C4800680344521A934232
:1014C80006D8094A136010BD0748084C0460F2E7C3
:1014D80005F01CFD0C2303604FF0FF30F3E700BF5D
:1014E8000000012000040000100C0020E01F002074
:1014F8007047000008B50A480A4B03604FF4E1330F
:10150800436000238360C36003610C2242618361EE
:10151800C36103F00DFA00B908BDFFF737FEFBE71A
:101528009C0C00200038014070B586B0002302935F
:101538000393049305930268314B9A4201D006B095
:1015480070BD044603F558439A6942F480429A6193
:101558009A6902F480420092009A9A6942F0040261
:101568009A619B6903F004030193019B4FF4007394
:1015780002930223039303230593224E02A93046C4
:1015880001F01AFB4FF4806302930025039504953C
:1015980002A9304601F010FB1B481C4B0360456054
:1015A80085608023C360056145618561C56101F07F
:1015B8002DF8F0B9144BE3635C621548154B0360D2
:1015C80010234360002383608022C260036143616B
:1015D8008361C36101F01AF870B90D4BA3635C62B3
:1015E80000221146252000F0A1FF252000F0D6FF9B
:1015F800A5E7FFF7CBFDDDE7FFF7C8FDEDE700BF87
:101608000038014000080140140C00205800024036
:10161800580C00204400024070B5094C094DC4F82C
:10162800105404F500744FF4007632460021204629
:1016380005F096FC32462146284603F0B3FC70BDFF
:10164800E40C00209C0C00200FB400B5ADF5037D20
:1016580084AA52F8041B019202A805F001FD02A811
:1016680005F0D0FC642382B202A9044803F090F983
:101678000DF5037D5DF804EB04B070479C0C002069
:101688000068194B984200D0704710B50C46174BAC
:101698001B685B68164BD3F8003203F0FF13154A3A
:1016A800934205D022460021134805F059FC10BD8D
:1016B8000F4B93F80132062B09D0072B0DD0052BC1
:1016C800F0D10E4BD3F8D43101209847EAE70B4B01
:1016D800D3F8D43102209847E4E7084BD3F8D43143
:1016E80003209847DEE700BF00380140140C0020B3
:1016F800E40C0020AA00FF00E40E0020F8100020EF
:10170800FFF7F6FE0B480C490C4A002302E0D458B8
:10171800C4500433C4188C42F9D3094A094C002335
:1017280001E013600432A242FBD305F0F5FBFFF79A
:1017380075FD704700000020280B0020F4D3000836
:10174800280B0020E01F0020FEE70000012804D03D
:10175800022807D003280AD07047074B074AC3F866
:10176800C021F5E7044B064AC3F8C021F2E7024B53
:10177800044AC3F8C021EFE7F8100020D012002077
:1017880060140020F015002008B50549012381F8F0
:10179800AB31122201F2AB11024804F0E8FC08BD9B
:1017A800F81000208C1700202DE9F041904B914A49
:1017B800C2F8C031002083F8C20083F8C40083F85F
:1017C800C60083F8C80083F8CA0083F8CC004FF03D
:1017D800010C83F8CEC083F8D0C083F8D2C04FF094
:1017E800020E83F8D4E083F8C3004FF0040883F8AE
:1017F800C580062783F8C770032683F8C96083F875
:10180800CBE083F8CDC083F8CF80052583F8D1508D
:1018180083F8D37083F8D50083F8D60083F8B6C070
:1018280083F8BEC083F8BCC083F8BAC083F8B8C0D8
:1018380083F8C00083F806E083F8D75083F8B760D0
:10184800072483F8BF4083F8BD0083F8BBC083F842
:10185800B9E083F8C14083F807C0674981F884007C
:1018680081F8860081F8880081F88A0081F88C0068
:1018780081F88E0081F890C081F892C081F894C0F8
:1018880081F896C081F898C081F89AC081F85CE028
:1018980081F85E00887081F86EC081F870C081F8A8
:1018A800850081F8878081F8897081F88B6081F8DC
:1018B8008DE081F88FC081F8918081F8935081F88C
:1018C800957081F8976081F899E081F89BC081F85C
:1018D8005D0081F85F50CC7081F86F0081F871402D
:1018E800464A1076107782F8420082F8220082F881
:1018F8003A0082F8240082F826C082F838C082F8BC
:1019080036C082F882C082F878C082F876C082F841
:1019180000E01071907082F862C082F866C050765C
:1019280082F81D8082F8437082F8236082F83BE0D9
:1019380082F825C082F8278082F8395082F83770FB
:1019480082F8836082F879E082F877C05070557128
:10195800D47082F8630082F86740FF2083F8A600FD
:1019680083F8AC0083F8B00083F8AE0083F8B400C5
:1019780083F8B20083F8A70083F8AD0083F8B100BC
:1019880083F8AF0083F8B50083F8B30081F8A600A8
:1019980081F8AC0081F8B00081F8AE0081F8B4009D
:1019A80081F8B20081F8A70081F8AD0081F8B10094
:1019B80081F8AF0081F8B50081F8B30082F8A6007D
:1019C80082F8AC0082F8B00082F8AE0082F8B40069
:1019D80082F8B20082F8A70082F8AD0082F8B10060
:1019E80082F8AF0082F8B50082F8B300BDE8F08154
:1019F800D0120020F810002060140020F0150020FC
:101A0800194B9988A3F89411DA88A3F89621002035
:101A180083F8980140F6C413994203D9124B082061
:101A280083F8980140F2DB53994206D80E4991F8A1
:101A3800983143F0040381F8983140F6C4139A4270
:101A480006D9094991F8983143F0020381F8983191
:101A580040F2DB539A4206D8034A92F8983143F091
:101A6800010382F898317047F8100020104B93F862
:101A7800A93103F0FE030F4A1078984215D058B1E7
:101A88004BB1984201D9042B09D9984209D2802B2D
:101A980009D8002000E01846064A13707047022053
:101AA800FAE70020F8E70120F6E70020704700BFBA
:101AB800F81000208017002038B5874D0024C5F89D
:101AC800AB41C5F8AF41C5F8B341C5F8B741A5F872
:101AD800BB41FFF795FFFFF7C9FF8446012385F84F
:101AE800AB312146F3E030F8130048BB1AE030F878
:101AF800130068BB16E030F8130088BB12E0774B80
:101B08001B780A2B56D0002B5ED1744B0A20187014
:101B18000124481C704B034493F9AB0194402043C3
:101B280083F8AB010132072A00F3D08002EBC1032E
:101B3800612B05D0684CD4F8C001694CA042D2D0C2
:101B4800422B05D0644CD4F8C001664CA042CED0DC
:101B58000C2B05D06048D0F8C001634CA042CAD015
:101B6800562BCCD0532B34D05A2B54D0592B6ED063
:101B7800582B00F08780572B00F096805648D0F8F5
:101B8800C04104EB430E14F81330034493F8A73113
:101B98009EF801E0012404FA0EF4234043FA0EF300
:101BA8004C1C204490F9AB41DBB29340234380F8AE
:101BB800AB31B7E7BCF1020F0CBF01240024A8D158
:101BC800013B46480370A4E7013B444803700124E5
:101BD8009FE7464B1B780A2B0ED0BBB9434B0A2014
:101BE80018700124481C3C4B034493F9AB01944002
:101BF800204383F8AB0195E7BCF1010F0CBF01242A
:101C08000024EFD1013B39480370EBE7013B37482B
:101C180003700124E6E7304B93F8983113F0010F75
:101C280007D1052B11D0092B01D0002302E0012395
:101C380000E001234C1C2848204490F9AB41DBB25A
:101C48009340234380F8AB316CE70123F2E7224B42
:101C580093F89831022B07D0062B11D00A2B01D00C
:101C6800002302E0012300E001234C1C1A48204411
:101C780090F9AB41DBB29340234380F8AB3151E795
:101C88000123F2E7144890F89831043BDBB2022BA9
:101C98008CBF002301234C1C204490F9AB41934096
:101CA800234380F8AB313DE70B4890F89831083B67
:101CB800DBB2022B8CBF002301234C1C204490F97B
:101CC800AB419340234380F8AB312BE70131102916
:101CD80001DC002227E738BDF810002005000020AD
:101CE800D012002060140020F0150020040000200D
:101CF80038B51C4C04F29B150023C4F89B31012213
:101D08001021194801F078F823689D630422DA87C6
:101D18001A68136843F040031360124B1A68D38F94
:101D28009BB293B11368996811F0010FF5D0926BCB
:101D38001B7B13700B4B1A68936B01339363D38F20
:101D48009BB2013B9BB2D387E7E71268136823F085
:101D58004003136000221021034801F04DF80020D1
:101D680038BD00BFF81000200008014008B5FFF793
:101D7800BFFF1F4BD3F89B21C3F89F21002204E02B
:101D880000BF0133072BFBDD0132012A01D80023F4
:101D9800F8E7FFF7ADFF00210AE0154B0B4493F875
:101DA8009F0193F89B215040024383F89B21013106
:101DB8000329F2DD0E4B4FF0FF32C3F8A721B3F829
:101DC8009C1193F89E211046A3F8A71183F8A92126
:101DD80093F8A721D24383F8A72193F8A821D243E7
:101DE80083F8A821C2B2D24383F8A92108BD00BF55
:101DF800F810002010B5114C114B2360182384F8FB
:101E080099314FF0FF33C4F89B31C4F89F31002358
:101E180084F89A314FF47A63C4F8C431FFF7C4FCEC
:101E2800084BC4F8C831084BC4F8CC31074BC4F888
:101E3800D031074BC4F8D43110BD00BFF8100020D2
:101E4800B80B0020751D0008C11A0008911700087A
:101E58005517000810B504460E4B18784FF47A73DE
:101E6800B3FBF0F30C4A1068B0FBF3F000F0A4FBEE
:101E780068B90F2C01D901200AE0002221464FF051
:101E8800FF3000F053FB054B1C60002000E00120F0
:101E980010BD00BF06000020000000200800002040
:101EA80008B5074A136843F010031360032000F0D5
:101EB8002BFB0F20FFF7CEFFFFF75CFA002008BDD1
:101EC80000200240034A1168034B1B780B4413603F
:101ED800704700BF8417002006000020014B1868D7
:101EE800704700BF8417002038B50446FFF7F6FF97
:101EF8000546B4F1FF3F02D0044B1B781C44FFF7A2
:101F0800EDFF401BA042FAD338BD00BF06000020F9
:101F1800704708B5436A9A6A12F0500F1ED19A6A40
:101F280042F400729A621A68926802F46022B2F56A
:101F3800602F03D01846FFF7EBFF08BD1A7B002A75
:101F4800F8D19A6A22F480729A629A6A12F4805FCF
:101F5800F0D19A6A42F001029A62EBE71B6A1B6BA6
:101F68009847EAE7704708B5406AFFF7FBFF08BDE6
:101F7800704708B5406A836A43F040038362C36AC6
:101F880043F00403C362FFF7F3FF08BD30B482B027
:101F98000022019290F82420012A00F09180034643
:101FA800012280F824204A68062A2DD80468606B2C
:101FB80002EB8202053A4FF01F0C0CFA02FC20EAF1
:101FC8000C000D6805FA02F2024362630A68092AE6
:101FD8003AD91C68E06802EB42021E3A4FF0070C3F
:101FE8000CFA02FC20EA0C008D6805FA02F20243A2
:101FF800E2600A68103A012A36D90020002283F8E4
:10200800242002B030BC70470C2A0ED80568286B13
:1020180002EB8202233A1F24944020EA04000C6851
:1020280004FA02F202432A63D0E70568E86A02EB81
:102038008202413A1F24944020EA04000C6804FA02
:1020480002F20243EA62C1E71C68206902EB42021D
:102058004FF0070C0CFA02FC20EA0C008D6805FA18
:1020680002F202432261C4E71A681648824205D088
:102078009A6A42F020029A620120BFE7906810F441
:10208800000F1BD1906840F4000090600A68102A85
:1020980001D00020B2E70C4A12680C49A1FB0212D9
:1020A800920C02EB82025200019202E0019A013A7C
:1020B8000192019A002AF9D100209FE700209DE7AC
:1020C80002209EE7002401400000002083DE1B431D
:1020D80030B583B00023019303689A6812F0010FAA
:1020E80033D104469A6842F001029A60184B1B6883
:1020F800184AA2FB03239B0C019302E0019B013BBE
:102108000193019B002BF9D1FFF7E8FE05462368F0
:102118009B6813F0010F16D1FFF7E0FE431B022B5B
:10212800F5D923689B6813F0010FF0D1A36A43F037
:102138001003A362E36A43F00103E362002384F817
:102148002430012002E0002000E0002003B030BD70
:102158000000002083DE1B43F8B504460D461646F2
:1021680001684448814259D0434B994256D094F86B
:102178002430012B7CD0012384F824302046FFF73B
:10218800A7FF074600286ED1A16A21F4706121F0EB
:10219800010141F48071A1622268374B9A4244D010
:1021A800A36A23F48013A362536813F4806F05D0E5
:1021B800A36A23F4405343F48053A362A36A13F43D
:1021C800805F48D0E36A23F00603E362002384F8C3
:1021D8002430236A294A9A62236A294ADA62236ADE
:1021E800284A1A6323686FF002021A60226893680B
:1021F80043F480739360216833462A464C31206A41
:1022080000F050FA23689A6802F46022B2F5602F51
:1022180024D09A6842F480129A6027E0154B5B68D4
:1022280013F4702FA3D0012720E0A3F580635B6827
:1022380013F4702FB4D0A36A43F48013A3620D4B38
:102248005B6813F4806FB9D0A36A23F4405343F456
:102258008053A362B2E70023E362B7E79A6842F4C7
:10226800A0029A6002E0002384F824303846F8BDC2
:102278000227FBE700240140002801401B1F00083B
:102288006F1F00087B1F000838B503689A6812F0B2
:10229800010F01D1002038BD04469A6822F00102DE
:1022A8009A60FFF71BFE054623689B6813F0010F31
:1022B80013D0FFF713FE431B022BF5D923689B6845
:1022C80013F0010FF0D0A36A43F01003A362E36A8E
:1022D80043F00103E3620120DDE70020DBE70000B3
:1022E800002800F0888070B50446836A002B52D01D
:1022F8002046FFF7C9FFA36A13F0100375D1002821
:1023080073D1A26A22F4885222F0020242F0020239
:10231800A2626268266839498E4242D0E1690A435E
:10232800217B42EA4102A568B5F5807F02D0012DE4
:102338003ED01D4694F814C0BCF1010F3BD0716823
:1023480021F46941294371602568AE682C49314000
:102358001143A960A168B1F5807F01D0012902D19C
:102368002369013B1B052568E96A21F470010B43C9
:10237800EB6223689968234B0B409A422CD0A36ADE
:1023880023F0120343F01003A362E36A43F001034E
:10239800E36201202EE0C36280F82430FEF70AFED3
:1023A800A6E7E169B1F5402FB9D14FF40021B6E7AE
:1023B8004FF48075BEE731B9A169013945EA413169
:1023C80041F40065BBE7A16A41F02001A162E16A1E
:1023D80041F00101E162B2E70023E362A36A23F05E
:1023E800030343F00103A36204E0A36A43F010036C
:1023F800A362012070BD0120704700BF003C01406E
:10240800FDF7E1FFFE0E1FFF70B582B000230193B8
:1024180090F82430012B72D00446012380F8243030
:10242800FFF732FF2046FFF753FE054628B1002389
:1024380084F82430284602B070BDA36A23F4885378
:1024480023F0020343F00203A3622E4B1E6802200E
:1024580002F09CF8B6FBF0F67600019602E0019BCC
:10246800013B0193019B002BF9D12268936843F04B
:1024780008039360FFF732FD064623689A6812F056
:10248800080F14D0FFF72AFD801B0A28F5D9236806
:102498009B6813F0080FF0D0A36A23F0120343F0EF
:1024A8001003A362002384F824300125C2E79A6848
:1024B80042F004029A60FFF711FD064623689B6804
:1024C80013F0040F14D0FFF709FD801B0A28F5D973
:1024D80023689B6813F0040FF0D0A36A23F012035B
:1024E80043F01003A362002384F824300125A1E7F8
:1024F800A36A23F0030343F00103A36297E70225CD
:1025080098E700BF00000020074AD36823F4E0637F
:102518001B041B0C000200F4E060034343F0BF639C
:1025280043F40033D360704700ED00E000B5194B69
:10253800DB68C3F30223C3F1070CBCF1040F28BF07
:102548004FF0040C03F1040EBEF1060F18D9033B3B
:102558004FF0FF3E0EFA0CFC21EA0C0199400EFAEE
:1025680003F322EA0303194300280BDB0901C9B26C
:1025780000F1604000F5614080F800135DF804FB4D
:102588000023E5E700F00F000901C9B2024B195416
:10259800F4E700BF00ED00E014ED00E0002807DBE1
:1025A80000F01F02400901239340024A42F82030FC
:1025B800704700BF00E100E00138B0F1807F0BD226
:1025C8004FF0E0235861054AF02182F823100020DB
:1025D800986107221A6170470120704700ED00E0FA
:1025E80030B40124056CAC40C56B6C600468636052
:1025F8004368102B05D0036899600368DA6030BC23
:10260800704703689A600368D960F8E700283AD0F1
:1026180010B4024600681D4B984229D81C4B03444D
:102628001C49A1FB03131B099B0013641A4BD363BA
:10263800022382F82130016821F47F5121F0300112
:10264800536894682343D468234314692343546923
:10265800234394692343D46923430B430360002035
:102668009063012382F8213082F8200010BC704763
:102678000A4B03440749A1FB03131B099B0013647E
:10268800074BD363D4E70120704700BF070402401B
:10269800F8FFFDBFCDCCCCCC00000240F8FBFDBF5D
:1026A8000004024038B5044690F82000012832D0D2
:1026B800012084F8200094F82100C0B2012804D039
:1026C800002384F82030022038BD022084F821003D
:1026D8000020A0632568286820F0010028602046B3
:1026E800FFF77EFFE36A5BB12268136843F00E03CD
:1026F80013602268136843F0010313600020E3E7C6
:102708002268136823F0040313602268136843F0F7
:102718000A031360EDE70220D6E790F82130DBB218
:10272800022B06D004238363002380F82030012085
:1027380070470268136823F00E0313600268136879
:1027480023F001031360036CC16B012202FA03F347
:102758004B6080F82120002380F82030184670470D
:1027680008B590F82130DBB2022B03D00423836331
:10277800012008BD0268136823F00E031360026885
:10278800136823F00103136003684C4A93424ED93F
:10279800783A934224D01432934230D01432934280
:1027A8002FD0143293422FD0143293422FD01432A8
:1027B80093422FD0143293422FD002F56272934283
:1027C8002ED0143293422DD0143293422CD014328E
:1027D800934202D04FF4803203E04FF4805200E07D
:1027E8000122374B5A60012380F82130002380F8FA
:1027F8002030436B002B5ED098470020B9E71022A9
:10280800EFE74FF48072ECE74FF48052E9E74FF4BA
:102818008032E6E74FF48012E3E74FF08072E0E79A
:102828000122DEE71022DCE74FF48072D9E7254A5F
:10283800934224D01432934225D01432934224D0A8
:102848001432934224D01432934224D01432934247
:1028580024D01432934224D002F56272934223D0DA
:102868001432934222D01432934221D0143293422C
:1028780002D04FF4803203E04FF4805200E001228E
:10288800114B5A60AFE71022FAE74FF48072F7E76E
:102898004FF48052F4E74FF48032F1E74FF480129E
:1028A800EEE74FF08072EBE70122E9E71022E7E755
:1028B8004FF48072E4E700205BE700BF800002402D
:1028C80000040240080002400000024038B5C36B13
:1028D8001A6804682568016C04238B40134200F0D1
:1028E8009B8015F0040F00F09780236813F0200FE9
:1028F80003D1236823F00403236003689A4A9342B0
:1029080046D9783A934224D01432934228D01432CC
:10291800934227D01432934227D01432934227D0BF
:102928001432934227D01432934227D002F56272B0
:10293800934226D01432934225D01432934224D0A5
:102948001432934202D04FF4802203E04FF48042C5
:1029580000E00422854B5A60C36A03B1984738BD2A
:102968004022F7E74FF48062F4E74FF48042F1E742
:102978004FF48022EEE74FF48002EBE74FF08062DD
:10298800E8E70422E6E74022E4E74FF48062E1E763
:10299800774A934224D01432934225D0143293427A
:1029A80024D01432934224D01432934224D01432C7
:1029B800934224D01432934224D002F56272934297
:1029C80023D01432934222D01432934221D01432AD
:1029D800934202D04FF4802203E04FF4804200E09B
:1029E8000422644B5A60B7E74022FAE74FF480624A
:1029F800F7E74FF48042F4E74FF48022F1E74FF411
:102A08008002EEE74FF08062EBE70422E9E740221C
:102A1800E7E74FF48062E4E702238B40134200F0BB
:102A2800AB8015F0020F00F0A780236813F0200F89
:102A380006D1236823F00A032360012380F821309C
:102A48000368494A93424BD9783A934224D01432C6
:102A580093422DD0143293422CD0143293422CD06E
:102A6800143293422CD0143293422CD01432934215
:102A78002CD002F5627293422BD0143293422AD0A2
:102A88001432934229D01432934202D04FF40032C8
:102A980003E04FF4005200E00222344B5A60002356
:102AA80080F82030836A002B3FF459AF984756E7E7
:102AB8002022F2E74FF40072EFE74FF40052ECE700
:102AC8004FF40032E9E74FF40012E6E74FF00072E6
:102AD800E3E70222E1E72022DFE74FF40072DCE7B8
:102AE800234A934224D01432934225D0143293427D
:102AF80024D01432934224D01432934224D0143276
:102B0800934224D01432934224D002F56272934245
:102B180023D01432934222D01432934221D014325B
:102B2800934202D04FF4003203E04FF4005200E029
:102B38000222104B5A60B2E72022FAE74FF40072E3
:102B4800F7E74FF40052F4E74FF40032F1E74FF49F
:102B58000012EEE74FF00072EBE70222E9E72022CD
:102B6800E7E74FF40072E4E7800002400004024007
:102B78000800024000000240082303FA01F1114254
:102B88003FF4EDAE15F0080F3FF4E9AE236823F0EB
:102B98000E032360026CC16B012303FA02F24A6040
:102BA800836380F82130002380F82030036B002BEA
:102BB8003FF4D5AE9847D2E670B582B00024A4465B
:102BC800B0E0874DAA4210D007D9864DAA420CD052
:102BD80005F58035AA4208D013E0A5F58015AA426C
:102BE80003D005F57025AA4207D18A68002A62D069
:102BF800012A5BD04361082403E0A5F58015AA42A9
:102C0800F3D0BEF1FF0F58D80646BEF1FF0F56D8D5
:102C18004FEA8C0233680F25954023EA050304FA2E
:102C280002F2134333604B6813F0805F78D06E4B29
:102C38009A6942F001029A619B6903F001030193CA
:102C4800019B4FEA9C02951C684B53F825600CF0D9
:102C580003039D000F23AB4026EA0306644B98420A
:102C680033D003F58063984200F0988003F58063C1
:102C7800984200F0958003F58063984200F09280B6
:102C880003F58063984200F08F8003F580639842D3
:102C980019D006231AE0CC68B3E7CC680434B0E74F
:102CA800CC680834ADE7CC680C34AAE70361082483
:102CB800A7E70024A5E70424A3E7061DA5E7ACF1D0
:102CC80008029200A6E7052300E00023AB40334347
:102CD8000232464D45F822304B6813F4801F65D008
:102CE800444A936843EA0E0393604B6813F4001F49
:102CF80062D0404AD36843EA0E03D3604B6813F4AA
:102D0800003F5FD03B4A536843EA0E0353604B6869
:102D180013F4803F5CD0374A136843EA0E0313600C
:102D28000CF1010C0A6832FA0CF357D0012303FAAC
:102D38000CF302EA030E33EA0202F1D14A68122ABE
:102D48003FF63FAF122A3FF65CAF01A555F822F0D7
:102D5800F32B00089F2C0008A92C0008BB2C0008A6
:102D68000B2C00080B2C00080B2C00080B2C00085F
:102D78000B2C00080B2C00080B2C00080B2C00084F
:102D88000B2C00080B2C00080B2C00080B2C00083F
:102D98000B2C0008A32C0008AF2C0008012395E792
:102DA800022393E7032391E704238FE7114A9368EB
:102DB80023EA0E03936098E70E4AD36823EA0E03CA
:102DC800D3609BE70B4A536823EA0E0353609EE7E0
:102DD800084A136823EA0E031360A1E702B070BD26
:102DE80000002210000031100010024000000140D5
:102DF80000080140000401400AB10161704709045C
:102E080001617047C36801EA030221EA030141EA4C
:102E180002410161704738B512F4804F44D004680C
:102E2800B4F850309BB291F800C003EBCC030233E6
:102E380004EB4303B3F80044C4F309048B69A342C9
:102E480028D31B1B8B618B697BB9056835F82C303F
:102E58009BB223F4804323F0700383F4005343F4BC
:102E6800004343F0800325F82C3012F0400F0ED0B9
:102E780002680D7832F825309BB223F4E04323F042
:102E8800700343F4004343F0C00322F8253024B90B
:102E9800204638BD00238B61D5E723460A89496956
:102EA800006803F030F8F3E70468B4F850309BB2D8
:102EB80091F800C003EBCC03063304EB4303B3F8EB
:102EC8000044C4F309048B69A3422FD31B1B8B61F5
:102ED8008B697BB9056835F82C309BB223F48043A5
:102EE80023F0700383F4005343F4004343F080035A
:102EF80025F82C3012F0400F0FD1026891F800C06D
:102F080032F82C309BB223F4E04323F0700343F4EF
:102F1800004343F0C00322F82C30002CB8D02346DD
:102F28004A894969006802F0EEFFB1E700238B6126
:102F3800CEE770B586B0002800F08180044690F88E
:102F4800A932EBB1032384F8A932206802F06DF8A6
:102F5800254655F8106BEC460FCDACE80F002B68F2
:102F6800CCF80030231D0ECB304602F04EF8054653
:102F780058B1022384F8A9320125284606B070BD4D
:102F880080F8A83203F0BAFEDCE70021206802F0DE
:102F980056F82B4616E05A1C02EB820104EBC101DD
:102FA8000120487002EB820104F8313004EBC100C3
:102FB8000021C17003EB830004EBC0008163C1638F
:102FC8000164D3B261688B42E5D316E005EB850353
:102FD80004EBC303002283F8692183F8685183F85E
:102FE8006B21C3F87821C3F87C2105EB850304EB3A
:102FF800C303C3F880210135EDB2A942E6D82546BE
:1030080055F8106BEC460FCDACE80F002B68CCF8E8
:103018000030231D0ECB304602F013F8054620B1D0
:10302800022384F8A9320125A7E7002384F8243075
:10303800012384F8A932206802F062FB9DE701258C
:103048009BE738B590F8A832012B11D0044601252A
:1030580080F8A852006801F0DFFF2946204603F0F7
:1030680054FF206802F04AFB002084F8A80238BD0B
:103078000220FCE770B505460C46164612F0400FD4
:1030880000F00E810268B2F850309BB2097803EB69
:10309800C103023302EB4303B3F80024C2F309026D
:1030A800A36993424ED99B1AA361A369002B66D1E9
:1030B8006378002B49D12B68B3F8502092B213449F
:1030C80003EB0111B1F80434C3F30903A1F8043484
:1030D800B1F804346FEA43436FEA53439BB2A1F853
:1030E80004342B686278002A3CD1B3F8502092B29D
:1030F8001344227803EB0213B3F80C24C2F3090239
:10310800A3F80C24B3F80C246FEA42426FEA524247
:1031180092B2A3F80C242178284603F023FE16F473
:10312800804F41D02A68217832F821309BB223F4AD
:10313800E04323F0700343F4404343F0800322F854
:10314800213031E00023A361AFE7012BC9D12B68FF
:10315800B3F8502092B2134403EB01110023A1F8F5
:103168000434BEE7012AD6D1B3F8502092B21344F2
:10317800227803EB02130022A3F80C24CBE716F401
:10318800804F0DD0286830F821309BB223F4E043FB
:1031980023F0700343F4404343F0800320F82130C8
:1031A80094F82430012B12D02A68217832F8213083
:1031B8009BB223F4E04323F0400383F0300343F44D
:1031C800004343F0800322F82130002070BD63697A
:1031D80013446361E3691344E361216A23699942F3
:1031E80024D3C91A21626278002A44D12A68B2F825
:1031F800501089B20A44217802EB0112B2F8041483
:10320800C1F30901A2F804143E2B1BD9580913F085
:103218001F0F00D10138B2F8041489B2800280B2BD
:10322800014341F40041A2F8041426E021B9002327
:1032380084F824301346D6E7002384F82430236228
:103248000B46D0E74BB9B2F804146FEA41416FEA74
:10325800514189B2A2F804140FE0590813F0010F84
:1032680000D00131B2F8040480B2890289B2014366
:10327800A2F8041401E0012A06D09BB222896169F0
:10328800286802F045FA8FE72A68B2F8501089B228
:103298000A44217802EB011299B2A2F80414ECE76F
:1032A8000268B2F850309BB2097803EBC1030633C9
:1032B80002EB4303B3F80024C2F30902A369934263
:1032C8004FD39B1AA361A369002B67D16378002BA6
:1032D8004AD12B68B3F8502092B2134403EB011182
:1032E800B1F80434C3F30903A1F80434B1F8043481
:1032F8006FEA43436FEA53439BB2A1F804342B6847
:103308006278002A3DD1B3F8502092B21344227853
:1033180003EB0213B3F80C24C2F30902A3F80C243C
:10332800B3F80C246FEA42426FEA524292B2A3F811
:103338000C242178284603F015FD16F4804F7FF4FD
:1033480033AF2A68217832F821309BB223F4E04366
:1033580023F0700343F4404343F0800322F8213004
:1033680022E70023A361AEE7012BC8D12B68B3F88D
:10337800502092B2134403EB01110023A1F8043446
:10338800BDE7012AD5D1B3F8502092B21344227870
:1033980003EB02130022A3F80C24CAE716F4804FAB
:1033A8000DD1286830F821309BB223F4E04323F094
:1033B800700343F4404343F0800320F8213094F82D
:1033C8002430012B7FF4F0AE636913446361E36931
:1033D8001344E361216A2369994224D3C91A2162FB
:1033E8002A686178002943D1B2F8501089B20A449A
:1033F800217802EB0112B2F80C14C1F30901A2F80A
:103408000C143E2B1BD9580913F01F0F00D101389B
:10341800B2F80C1489B2800280B2014341F4004131
:10342800A2F80C1426E021B9002384F824301346AE
:10343800D6E70023236284F824300B46D0E74BB943
:10344800B2F80C146FEA41416FEA514189B2A2F80F
:103458000C140FE0590813F0010F00D00131B2F835
:103468000C0480B2890289B20143A2F80C1401E06D
:10347800012906D09BB262896169286802F048F97F
:1034880092E6B2F8501089B20A44217802EB011290
:1034980099B2A2F80C14EDE72DE9F0410546286829
:1034A800B0F8443013F4004F00F08E82B0F8444076
:1034B800A3B214F00F0440F0E28013F0100F6BD0A9
:1034C80003889AB213F4006F40F09D8012F4004F05
:1034D800E5D0038823F070031B051B0D43F0800320
:1034E80003802868B0F850309BB295F8682103EB48
:1034F800C203063300EB4303B3F80034C3F30903F4
:10350800C5F884318BB1D5F87C1171B1B5F86E214D
:1035180002F0F9FCD5F88421D5F87C311344C5F8BC
:103528007C310021284603F011FC2A68138899B2DF
:1035380013F4006FB3D101F44051B1F5405FAED040
:10354800B2F850309BB21A44B2F80C34C3F30903F2
:10355800A2F80C34D5F878313E2B77D9590913F0F5
:103568001F0F00D10139B2F80C349BB2890289B21D
:103578000B4343F40043A2F80C342A6813889BB227
:1035880023F4804323F0700383F4405343F400434F
:1035980043F08003138082E703889BB223F4E1435E
:1035A80023F070036FEA43436FEA53439BB20380EF
:1035B8002A68B2F850309BB295F8281003EBC10383
:1035C800023302EB4303B3F80034C3F309036B641B
:1035D800EA6B1344EB630021284603F0C3FB95F81C
:1035E8002430002B3FF45BAF2B6C002B7FF457AFDC
:1035F80095F824302A6843F08003A2F84C30002361
:1036080085F824304BE7B0F850309BB295F8682124
:1036180003EBC203063300EB4303B3F80034C3F3F0
:103628000903C5F88431B5F86E2105F52C7102F04F
:103638006AFC2A68138823F070031B051B0D43F0EE
:1036480080031380284603F079FB28E74BB9B2F8CA
:103658000C346FEA43436FEA53439BB2A2F80C342D
:103668008BE7590813F0010F00D00131B2F80C3480
:1036780098B28B029BB20343A2F80C347DE730F872
:1036880024309EB213F4004F4CD116F0800F3FF453
:1036980006AF621C02EB820105EBC101286830F815
:1036A80024309BB223F4E14323F070036FEA4343D1
:1036B8006FEA53439BB220F82430CB78012B00F0FB
:1036C800F28016F4807F40F07A812868B0F8503094
:1036D8009BB2621C02EB820215F8326003EBC60350
:1036E800023300EB4303B3F80034C3F3090304EBDC
:1036F800840205EBC202126C9A4240F24C8104EB40
:10370800840705EBC707D21A3A6404EB840205EB79
:10371800C202126C002A40F045813146284603F067
:1037280021FBBCE630F8243023F070031B051B0D89
:1037380043F0800320F8243004EB8401C90001F52C
:10374800B47105EB010804EB840305EBC30393F89C
:103758007431002B42D12868B0F850309BB204EB8A
:10376800840205EBC20292F8682103EBC203063318
:1037780000EB4303B3F80074C7F3090717BB04EB66
:10378800840305EBC303D3F884213A44C3F88421A6
:10379800D3F87C213A44C3F87C21D3F880313BB17B
:1037A80004EB840305EBC303D3F878319F4275D249
:1037B80004EB840305EBC30393F86811284603F070
:1037C800C5FA62E704EB840105EBC1013B46B1F899
:1037D8006E21D1F87C1102F096FBD0E704EB84034C
:1037E80005EBC30393F86B31022B35D0296804EB42
:1037F800840205EBC20292F8680131F820309BB2CE
:1038080023F4E04323F0700343F4004343F0C00380
:1038180021F82030286892F8682130F8223013F413
:10382800804F20D0B0F850309BB203EBC203023374
:1038380000EB4303B3F80074C7F30907002F9ED0C9
:1038480004EB840105EBC1013B46B1F87021D1F8C6
:103858007C1102F058FB92E7324641462846FFF7B2
:10386800DAFA07468BE7B0F850309BB203EBC20395
:10387800063300EB4303B3F80074C7F30907002FBE
:103888003FF47DAF04EB840105EBC1013B46B1F881
:103898007221D1F87C1102F036FB70E741462868A6
:1038A80001F04AFFF1E604EB840305EBC3030022B1
:1038B8001A6493F83430FBB116F0400F37D04B78C8
:1038C8001BBB2B68B3F8502092B21344621C02EB66
:1038D800820215F8322003EB0213B3F80424C2F372
:1038E8000902A3F80424B3F804246FEA42426FEAF9
:1038F800524292B2A3F80424013404EB840415F86C
:103908003410284603F02EFAC9E5012BF4D12B68B0
:10391800B3F8502092B21344621C02EB820215F8ED
:10392800322003EB02130022A3F80424E4E72A68F8
:10393800631C03EB830305EBC3035B78D3B9B2F8CD
:1039480050309BB21344621C02EB820215F83220FD
:1039580003EB0213B3F80C24C2F30902A3F80C24F6
:10396800B3F80C246FEA42426FEA524292B2A3F8CB
:103978000C24C1E7012BBFD1B2F850309BB21344DD
:10398800621C02EB820215F8322003EB02130022BC
:10399800A3F80C24B0E704EB840205EBC20200276D
:1039A8001764B2E604EB840205EBC202D66B1E4430
:1039B800D663546C2344536401F0BEFE6FE532466F
:1039C8002846FFF757FB6AE50020BDE8F08190F82C
:1039D800A832012B0DD010B50446012380F8A83277
:1039E80080F82410006801F083FE002084F8A80203
:1039F80010BD0220704710B584B00446006801F07D
:103A080081FE10F4004F20D110F4806F21D110F402
:103A1800804F2FD110F4005F37D110F4805F3ED172
:103A280010F4006F40F0878010F4007F40F0AE8003
:103A380010F4807F27D02268B2F844309BB223F478
:103A480080739BB2A2F844301DE02046FFF724FDA6
:103A580019E02268B2F844309BB223F480639BB229
:103A6800A2F84430204603F08EF900212046FFF7E3
:103A7800AEFF08E02268B2F844309BB223F48043DA
:103A88009BB2A2F8443004B010BD2268B2F84430AA
:103A98009BB223F400539BB2A2F84430F3E72268A8
:103AA800B2F840309BB223F004039BB2A2F8403036
:103AB8002268B2F840309BB223F008039BB2A2F808
:103AC8004030204603F082F92268B2F844309BB2B5
:103AD80023F480539BB2A2F84430D4E7226832F82A
:103AE800231004AA02EB430222F8101C0133DBB2B4
:103AF800072BF3D92268B2F840309BB243F0010398
:103B0800A2F840302268B2F840309BB223F001039B
:103B18009BB2A2F840302368B3F8442012F4806FB7
:103B2800F9D0B3F8442092B222F4806292B2A3F89A
:103B3800442000230BE00023DAE7226804A901EB04
:103B4800430131F8101C22F823100133DBB2072B94
:103B5800F3D92268B2F840309BB243F00803A2F8C8
:103B680040302268B2F844309BB223F400639BB221
:103B7800A2F844302268B2F840309BB243F0040304
:103B8800A2F84030204603F011F97CE72268B2F829
:103B980044309BB223F400739BB2A2F84430204611
:103BA80003F0EBF86FE710B50446084611F0800FF4
:103BB80025D101F0070C0CEB8C01C90001F5B47E8E
:103BC80004EB0E010CEB8C0C04EBCC0C4FF0000E4C
:103BD8008CF869E100F0070008700A61CB70022BCD
:103BE8001AD094F8A832012B19D0012384F8A832EE
:103BF800206801F037FA002084F8A80210BD01F00F
:103C0800070C0CF1010C0CEB8C0104EBC1014FF01B
:103C1800010E81F801E0DDE700230B71E1E70220E6
:103C2800ECE710B504460B4611F0800F1FD101F0E8
:103C3800070202EB8201C90001F5B471014402EBED
:103C4800820200EBC202002082F8690103F0070338
:103C58000B7094F8A832012B13D0012384F8A832F2
:103C6800206801F0E4FB002084F8A80210BD01F0F0
:103C78000702013202EB820100EBC101012048700A
:103C8800E4E70220F2E710B501F0070C0CEB8C0119
:103C9800C90001F5B4710CEB8C0E00EBCE0ECEF81A
:103CA8007C21CEF880310024CEF884418EF8694119
:103CB8008EF868C10144006801F03EFD204610BD41
:103CC80038B501F0070404F1010C0CEB8C0104EB8E
:103CD800840E00EBCE0ECEF83C20CEF84030012208
:103CE8008EF84C20CEF848300025CEF8445000EB32
:103CF800C1035A7000F831401946006801F01CFDF4
:103D0800284638BD38B501F007054268954231D8D4
:103D180004460B4611F0800F1ED101EB8101C9004A
:103D280001F5B471014403EB830300EBC3030022E4
:103D380083F8692101238B700D7094F8A832012B48
:103D48001AD0012384F8A832206801F05BFC5DB129
:103D5800002084F8A80238BD6B1C03EB830100EB3C
:103D6800C10101224A70E5E704F52C71206801F0D1
:103D7800CDFCEDE70120EEE70220ECE70B4601F071
:103D88000F014268914230D810B5044613F0800FF5
:103D980021D103F0070202EB8201C90001F5B471D9
:103DA800014402EB820200EBC202002082F86901A2
:103DB80000228A7003F007030B7094F8A832012BD5
:103DC80015D0012384F8A832206801F040FC0020B7
:103DD80084F8A80210BD03F00702013202EB820149
:103DE80000EBC10101204870E2E701207047022082
:103DF800F0E711F0800F0BD001F00701013101EB62
:103E0800810100EBC10152B90A73CB8000207047D1
:103E180001EB8101C90001F5B4710144F3E7012206
:103E28000A730B811B0C4B81F0E7000082B0084B32
:103E38001B68084AA2FB03235B0A00FB03F30193F8
:103E480000BF019B5A1E0192002BF9D102B07047A6
:103E580000000020D34D6210002800F0F18170B5F9
:103E680082B00446036813F0010F2CD0994B5B68AD
:103E780003F00C03042B1DD0964B5B6803F00C0376
:103E8800082B12D06368B3F5803F41D0002B55D181
:103E980003F1804303F504331A6822F480321A6070
:103EA8001A6822F480221A6037E08A4B5B6813F4A0
:103EB800803FE7D0874B1B6813F4003F03D063684B
:103EC800002B00F0BF81236813F0020F75D0814BDF
:103ED8005B6813F00C0F5FD07E4B5B6803F00C033C
:103EE800082B54D02369002B00F08A807A4B0122DA
:103EF8001A60FDF7F3FF0546764B1B6813F0020FB7
:103F080075D1FDF7EBFF401B0228F5D903209EE190
:103F1800704A136843F480331360636843B3FDF752
:103F2800DDFF05466B4B1B6813F4003FCBD1FDF753
:103F3800D5FF401B6428F5D9032088E1B3F5A02FED
:103F480009D0644B1A6822F480321A601A6822F485
:103F580080221A60E1E703F18043A3F53C331A6835
:103F680042F480221A601A6842F480321A60D4E758
:103F7800FDF7B4FF0546574B1B6813F4003FA2D06A
:103F8800FDF7ACFF401B6428F5D903205FE1514BD6
:103F98005B6813F4803FA5D14E4B1B6813F0020FEA
:103FA80003D02369012B40F04F814A4A136823F05C
:103FB800F803616943EAC1031360236813F0080F2B
:103FC80033D0A369002B5CD0434B0122C3F8802473
:103FD800FDF784FF05463F4B5B6A13F0020F21D1C2
:103FE800FDF77CFF401B0228F5D903202FE1394A51
:103FF800136823F0F803616943EAC1031360DCE73F
:10400800354B00221A60FDF769FF0546314B1B68E6
:1040180013F0020FD1D0FDF761FF401B0228F5D93C
:10402800032014E10120FFF701FF236813F0040FB8
:1040380000F09680274BDB6913F0805F34D1254B65
:10404800DA6942F08052DA61DB6903F08053019348
:10405800019B0125214B1B6813F4807F26D0E36860
:10406800012B3DD0002B53D103F1804303F50433DA
:104078001A6A22F001021A621A6A22F004021A620B
:1040880033E0154B0022C3F88024FDF727FF0546CF
:10409800104B5B6A13F0020FC7D0FDF71FFF401BE0
:1040A8000228F5D90320D2E00025D3E70B4A13688C
:1040B80043F480731360FDF711FF0646074B1B6836
:1040C80013F4807FCBD1FDF709FF801B6428F5D955
:1040D8000320BCE000100240000042420070004093
:1040E8005F4A136A43F001031362E36833B3FDF7D1
:1040F800F5FE06465A4B1B6A13F0020F2FD1FDF747
:10410800EDFE801B41F288339842F3D903209EE0EC
:10411800052B09D0524B1A6A22F001021A621A6A58
:1041280022F004021A62E0E74D4B1A6A42F00402D8
:104138001A621A6A42F001021A62D6E7FDF7CEFE49
:104148000646474B1B6A13F0020F08D0FDF7C6FE60
:10415800801B41F288339842F3D9032077E0E5B910
:10416800E369002B72D03E4A526802F00C02082A1A
:1041780056D0022B17D03B4B00221A66FDF7AEFE35
:104188000446374B1B6813F0007F47D0FDF7A6FEA7
:10419800001B0228F5D9032059E0314AD36923F0DE
:1041A8008053D361DCE72F4B00221A66FDF796FE99
:1041B80005462B4B1B6813F0007F06D0FDF78EFEDB
:1041C800401B0228F5D9032041E0236AB3F5803F5C
:1041D8001AD023494B6823F47413226A606A024395
:1041E80013434B601F4B01221A66FDF777FE044606
:1041F8001B4B1B6813F0007F0ED1FDF76FFE001BF1
:104208000228F5D9032022E0154A536823F4003325
:10421800A1680B435360DCE7002018E0002016E09B
:10422800012B16D00E4B5B6803F48031226A914251
:1042380011D103F47013626A93420ED1002006E094
:1042480001207047012002E0012000E0002002B0B8
:1042580070BD0120FBE70120F9E70120F7E700BF67
:1042680000100240000042420F4B5B6803F00C0252
:10427800082A01D00D487047C3F383420C49885C73
:1042880013F4803F0BD0084B5B68C3F34043094AE3
:10429800D35C064A02FB00F0B0FBF3F07047064B14
:1042A80003FB00F0704700BF0010024000127A00C4
:1042B8005CCF00086CCF000800093D00002800F022
:1042C800A08070B50D460446524B1B6803F00703E7
:1042D8008B420BD24F4A136823F007030B4313603A
:1042E800136803F007038B4240F08D80236813F0B6
:1042F800020F17D013F0040F04D0474A536843F451
:10430800E0635360236813F0080F04D0424A5368EF
:1043180043F460535360404A536823F0F003A168A4
:104328000B435360236813F0010F31D06368012BEE
:1043380020D0022B25D0384A126812F0020F64D020
:1043480035494A6822F0030213434B60FDF7C6FD66
:104358000646314B5B6803F00C036268B3EB820FCF
:1043680016D0FDF7BBFD801B41F288339842F0D987
:10437800032045E0284A126812F4003FE0D10120EA
:104388003EE0254A126812F0007FD9D1012037E0BB
:10439800204B1B6803F00703AB420AD91D4A136878
:1043A80023F007032B431360136803F00703AB42A2
:1043B8002DD1236813F0040F06D0174A536823F44D
:1043C800E063E1680B435360236813F0080F07D0DC
:1043D800114A536823F46053216943EAC1035360C7
:1043E800FFF742FF0C4B5B68C3F303130B4AD35C24
:1043F800D8400B4B18600B4B1868FDF72BFD0020BD
:1044080070BD012070470120FAE70120F8E701207C
:10441800F6E700BF002002400010024044CF000829
:104428000000002008000020014B1868704700BFFA
:104438000000002008B5FFF7F7FF044B5B68C3F3E3
:104448000223034AD35CD84008BD00BF00100240D5
:1044580054CF000808B5FFF7E7FF044B5B68C3F3C8
:10446800C223034AD35CD84008BD00BF00100240F5
:1044780054CF000870B582B00446036813F0010FEA
:1044880036D03F4BDB6913F0805F49D13C4BDA698A
:1044980042F08052DA61DB6903F080530193019B9B
:1044A8000125384B1B6813F4807F3BD0344B1B6AC3
:1044B80013F4407313D0626802F440729A420ED02B
:1044C8002F4A136A23F440702F490126C1F840642B
:1044D8000026C1F84064106213F0010F36D1284A53
:1044E800136A23F4407361680B431362002D3ED1B5
:1044F800236813F0020F06D0214A536823F440437F
:10450800A1680B435360236813F0100F34D01C4A82
:10451800536823F4800361690B43536000202CE047
:104528000025BEE7174A136843F480731360FDF74C
:10453800D5FC0646134B1B6813F4807FB6D1FDF7F4
:10454800CDFC801B6428F5D9032016E0FDF7C6FCD6
:1045580006460B4B1B6A13F0020FC0D1FDF7BEFCD9
:10456800801B41F288339842F3D9032005E0D369D0
:1045780023F08053D361BBE7002002B070BD00BFB9
:1045880000100240007000400000424208B50138A7
:104598000F2863D8DFE800F03557622F6262623275
:1045A80062626262626262082F4B5A68186810F091
:1045B800807054D0C2F383432C49C85C12F4803F06
:1045C80015D0294B5B68C3F34043294AD25C294B79
:1045D800B3FBF2F303FB00F0234B5B6813F4800F8B
:1045E8003DD14000244BA3FB0030400837E0234B6B
:1045F80003FB00F0F0E7FFF737FE30E0FFF734FE8B
:104608002DE0194B1B6A40F202321A40B2F5817F45
:1046180026D003F44073B3F5007F04D0B3F5407F90
:1046280009D000201BE0104A526A12F0020FF5D0A0
:1046380049F6404013E00C4B186810F400300ED0D7
:104648004FF224400BE0FFF705FF074B5B68C3F30D
:10465800813301335B00B0FBF3F000E0002008BDBC
:104668004FF40040FBE700BF0010024070CF000885
:1046780080CF000800127A00ABAAAAAA00093D0060
:10468800002856D010B50446436A33B94368B3F5D9
:10469800827F05D00023C36102E0002303614361E8
:1046A8000023A36294F85130002B3CD0022384F8F5
:1046B80051302268136823F040031360636803F4E1
:1046C8008273A26802F404421343E26802F40062AF
:1046D8001343226902F002021343626902F00102E5
:1046E8001343A26902F400721343E26902F038022C
:1046F8001343226A02F080021343A26A02F40052B2
:10470800216813430B60638B226803F00403536032
:104718002268D36923F40063D36100206065012314
:1047280084F8513010BD84F850302046FCF7E8FD7D
:10473800BCE701207047026802F10C0353E8003F10
:1047480023F0C0030C3242E800310029F3D12023C2
:1047580080F841307047026802F10C0353E8003FCB
:1047680023F490730C3242E800310029F3D1026837
:1047780002F1140353E8003F23F00103143242E826
:1047880000310029F3D1036B012B05D0202380F8D9
:104798004230002303637047026802F10C0353E8B8
:1047A800003F23F010030C3242E800310029F3D116
:1047B800ECE790F84130DBB2212B01D002207047A2
:1047C8008368B3F5805F17D0036A5A1C02621A78AF
:1047D80003685A60C38C9BB2013B9BB2C3844BB93C
:1047E8000268D36823F08003D3600268D36843F07B
:1047F8004003D360002070470369002BE4D1036AAB
:104808001B880268C3F308035360036A0233036218
:10481800E0E7000010B504460268136923F440532A
:10482800C1680B43136183680269134342691A43E1
:104838000168CB6823F4B05323F00C031343CB6017
:104848000268536923F4407381690B43536102681A
:10485800134B9A4220D0FFF7EDFD024602EB82028D
:1048680002EB820263689B00B2FBF3F20D48A0FBE7
:1048780002314909642303FB11231B013233A0FBD6
:1048880003235B0903F0F00202EB011203F00F03AC
:10489800216813448B6010BDFFF7DCFD0246DDE79D
:1048A800003801401F85EB512DE9F84305460F46B6
:1048B80016469946DDF820802C68246837EA0403F8
:1048C8000CBF4FF0010C4FF0000CB4452DD1B8F1DE
:1048D800FF3FF1D0B8F1000F05D0FDF7FFFAA0EBCC
:1048E80009004045E8D92A6802F10C0353E8003F63
:1048F80023F4D0730C3242E800310029F3D12A683E
:1049080002F1140353E8003F23F00103143242E894
:1049180000310029F3D1202385F8413085F8423051
:10492800002385F84030032000E00020BDE8F8832C
:1049380060B310B5044690F8413013B3242384F8CB
:1049480041302268D36823F40053D3602046FFF730
:1049580061FF2268136923F4904313612268536945
:1049680023F02A0353612268D36843F40053D360C9
:1049780000206064202384F8413084F8423060636A
:1049880010BD80F84030FCF7CFFDD7E70120704715
:104998002DE9F04182B01E4690F84130DBB2202B61
:1049A8004BD104460D46904600294AD00AB9012049
:1049B80044E000234364212380F84130FDF78EFA58
:1049C8000746A4F82480A4F82680A368B3F5805F7E
:1049D80002D04FF000080FE02369FBB14FF0000848
:1049E8000AE038F8023B2268C3F308035360E28CFC
:1049F80092B2013A92B2E284E38C9BB28BB10096F8
:104A08003B46002280212046FFF74EFFD8B9002DF3
:104A1800E7D015F8012B23685A60E8E7A846002577
:104A2800EAE700963B46002240212046FFF73CFF7C
:104A380058B9202384F8413000E0022002B0BDE8D4
:104A4800F0810120FAE70320F8E70320F6E7704732
:104A580008B50168CA6822F04002CA60202280F8BE
:104A68004120FFF7F4FF002008BD704770477047EA
:104A780010B5446A23685A6994F84130DBB2212B97
:104A880010D023685A6902F0400294F84230DBB231
:104A9800222B11D0636C43F0100363642046FFF7A8
:104AA800E6FF10BD02F08002002AEAD00023E3846A
:104AB8002046FFF740FEE4E7002AEBD00023E38519
:104AC8002046FFF748FEE5E708B5406A0023C3859E
:104AD800C384FFF7CCFF08BD90F84230DBB2222B2D
:104AE80069D18368B3F5805F4FD0826AB3F5805F80
:104AF80004D0002B56D10369002B53D103685B689F
:104B08001370836A01338362C38D9BB2013B9BB2EE
:104B1800C385002B51D100B583B00268D36823F058
:104B28002003D3600268D36823F48073D3600268DB
:104B3800536923F001035361202380F84230002396
:104B48004363036B012B33D100230363026802F133
:104B58000C0353E8003F23F010030C3242E8003105
:104B68000029F3D103681A6812F0100F06D000224A
:104B780001921A6801925B680193019B818DFCF791
:104B88007FFD002003B05DF804FB0269002AACD168
:104B9800826A03685B68C3F308031380836A02337D
:104BA8008362B1E703685B6803F07F031370A8E7CB
:104BB800FFF75BFFE5E70220704700207047000021
:104BC80030B583B0044602681368D068516913F0A1
:104BD8000F0505D113F0200F02D010F0200F19D1C6
:104BE8002DB111F0010119D110F4907F16D1216B6C
:104BF80001297DD013F0800F03D010F0800F40F012
:104C0800188113F0400F03D010F0400F40F01581C9
:104C180003B030BD2046FFF75FFFF9E713F0010F3F
:104C280006D010F4807F03D0626C42F00102626407
:104C380013F0040F04D019B1626C42F002026264EE
:104C480013F0020F04D019B1626C42F004026264DE
:104C580013F0080F07D010F0200F00D119B1626CC3
:104C680042F008026264626C002AD1D013F0200F6F
:104C780002D010F0200F29D123685B6903F04003AC
:104C8800626C12F0080F00D163B32046FFF763FD92
:104C980023685B6913F0400F20D0226802F11403E7
:104CA80053E8003F23F04003143242E80031002962
:104CB800F3D1E36B73B1634A5A63E06BFDF750FDC0
:104CC8000028A5D0E06B436B9847A1E72046FFF783
:104CD80003FFD1E72046FFF7CAFE99E72046FFF712
:104CE800C6FE95E72046FFF7C2FE002363648FE700
:104CF80013F0100F3FF47EAF10F0100F3FF47AAFAF
:104D0800002301931368019353680193019B53692E
:104D180013F0400F51D0E26B13685B689BB2002B15
:104D28003FF476AFA18D99427FF672AFE385936920
:104D3800202B37D0226802F10C0353E8003F23F4FC
:104D480080730C3242E800310029F3D1226802F165
:104D5800140353E8003F23F00103143242E8003102
:104D68000029F3D1226802F1140353E8003F23F02D
:104D78004003143242E800310029F3D1202384F89B
:104D8800423000232363226802F10C0353E8003FFA
:104D980023F010030C3242E800310029F3D1E06B14
:104DA800FDF7BBFC02236363A18DE38D9BB2C91A97
:104DB80089B22046FCF764FC2AE7A18DE38D9BB2FB
:104DC800C91A89B2E38D9BB2002B3FF421AF0029A9
:104DD8003FF41EAF226802F10C0353E8003F23F4AE
:104DE80090730C3242E800300028F3D1226802F1B7
:104DF800140353E8003F23F00103143242E8003063
:104E08000028F3D1202384F842300023236322684A
:104E180002F10C0353E8003F23F010030C3242E880
:104E280000300028F3D1022363632046FCF728FCF6
:104E3800EEE62046FFF7BDFCEAE62046FFF708FE4F
:104E4800E6E600BFD14A000808B5406A012343637B
:104E5800036B012B02D0FFF709FE08BD818D4908BD
:104E6800FCF70EFCF9E708B50346406A1B681B68A7
:104E780013F0200F2BD10023C385026802F10C0325
:104E880053E8003F23F480730C3242E800310029D4
:104E9800F3D1026802F1140353E8003F23F0010341
:104EA800143242E800310029F3D1026802F11403F8
:104EB80053E8003F23F04003143242E80031002950
:104EC800F3D1202380F84230036B012B07D0002355
:104ED8004363036B012B0FD0FFF7C7FD08BD0268C2
:104EE80002F10C0353E8003F23F010030C3242E8B0
:104EF80000310029F3D1EAE7818DFCF7C1FBEDE72A
:104F080030B583B004461346816282850025456426
:104F1800222280F84220C26B1F489062E26B1F4831
:104F2800D062E26B1E481063E26B556320680A4644
:104F3800011DE06BFDF7B6FB019523681A68019225
:104F48005B680193019B23695BB1226802F10C0342
:104F580053E8003F43F480730C3242E800310029E3
:104F6800F3D1226802F1140353E8003F43F0010330
:104F7800143242E800310029F3D1226802F1140307
:104F880053E8003F43F04003143242E8003100295F
:104F9800F3D1002003B030BD6F4E0008514E000819
:104FA800794A000890F84230DBB2202B29D110B59D
:104FB80082B0044639B312B9012002B010BD0123F2
:104FC800036300234363FFF79BFF0028F5D1236B9E
:104FD800012B01D00120F0E70023019323681A6810
:104FE80001925B680193019B226802F10C0353E86C
:104FF800003F43F010030C3242E800310029F3D19E
:10500800DBE7022070470120D7E784B001A880E8D9
:105018000E00002004B0704703460020A3F84400A7
:105028004FF43F42A3F840207047B0F8403023F4D3
:105038007C535B045B0CA0F84030002070470020D4
:10504800704784B0844601A880E80E000123ACF8BC
:1050580040300020ACF84000ACF84400ACF85000F8
:1050680004B0704710B5034691F800C030F82C2002
:1050780092B222F4EC4222F0700292B2C87803286D
:1050880061D8DFE800F0555C0258002048F2800E35
:1050980042EA0E0223F82C2091F800C033F82C20A5
:1050A80092B222F4E04222F070024CEA020242EA92
:1050B8000E0223F82C200A7B002A40F0DC804A7874
:1050C800002A51D0B3F8502092B21A440C7802EB5F
:1050D8000412B1F806C04FEA5C0C4FEA4C0CA2F877
:1050E80000C40C7833F8242012F0400F0CD033F8A9
:1050F800242092B222F4E04222F0700242F40042EC
:1051080042F0C00223F82420CA78012A1DD0097869
:1051180033F8212092B222F4E04222F0400282F0D9
:10512800200242F4004242F0800223F8212017E1D5
:1051380042F40072AAE742F4C0620020A6E742F4F3
:1051480080620020A2E70120A0E7097833F8212037
:1051580092B222F4E04222F0400242F4004242F0CD
:10516800800223F82120FBE0B3F8502092B21A44C1
:105178000C7802EB0412B1F806C04FEA5C0C4FEA57
:105188004C0CA2F808C4B3F8502092B21A440C7818
:1051980002EB0412B2F80CC4CCF3090CA2F80CC44C
:1051A8000C693E2C39D94FEA541E14F01F0F01D157
:1051B8000EF1FF3EB2F80CC41FFA8CFC4FEA8E2E9B
:1051C8001FFA8EFE4CEA0E0C4CF4004CA2F80CC4EC
:1051D8000C7833F8242012F4804F0CD033F82420B4
:1051E80092B222F4E04222F0700242F4404242F0CD
:1051F800800223F82420097869BB33F8212092B271
:1052080022F4804222F0700282F4405242F40042BA
:1052180042F0800223F82120A2E04CB9B2F80C44F5
:105228006FEA44446FEA5444A4B2A2F80C44CFE7AE
:105238004FEA540C14F0010F01D00CF1010CB2F834
:105248000C44A4B24FEA8C2C1FFA8CFC44EA0C0CD8
:10525800A2F80CC4BCE733F8212092B222F48042B1
:1052680022F0700282F4005242F4004242F08002BE
:1052780023F8212074E0CA78022A72D00C7833F817
:10528800242092B222F4E24222F0700242F4004258
:1052980042F0800223F82420B3F8502092B21A4436
:1052A80091F800C002EB0C12B1F808C04FEA5C0C90
:1052B8004FEA4C0CA2F800C4B3F8502092B21A443A
:1052C80091F800C002EB0C12B1F80AC04FEA5C0C6E
:1052D8004FEA4C0CA2F808C44A78002A50D10C783E
:1052E80033F8242012F4804F0CD033F8242092B2E3
:1052F80022F4E04222F0700242F4404242F080027E
:1053080023F824200C7833F8242012F0400F0CD016
:1053180033F8242092B222F4E04222F0700242F4E0
:10532800004242F0C00223F8242091F800C033F86C
:105338002C2092B222F4804222F0700282F4405271
:1053480048F28004224323F82C20097833F82120DE
:1053580092B222F4E04222F04002224323F82120B4
:1053680010BD0C7833F8242092B222F4E04222F0E7
:10537800700242F4014242F0800223F824208BE7B5
:105388000C7833F8242012F4804F0CD033F8242002
:1053980092B222F4E04222F0700242F4404242F01B
:1053A800800223F824200C7833F8242012F0400FD0
:1053B8000CD033F8242092B222F4E04222F070029A
:1053C80042F4004242F0C00223F82420CA78012A9D
:1053D8001ED00C7833F8242092B222F4E04222F056
:1053E800400282F0200242F4004242F0800223F898
:1053F8002420097833F8212092B222F4804222F046
:10540800700242F4004242F0800223F82120A7E70C
:105418000C7833F8242092B222F4E04222F04002C1
:1054280042F4004242F0800223F82420E1E70B7B9B
:10543800002B46D14B7813B30A7830F8223013F09A
:10544800400F0CD030F822309BB223F4E04323F015
:10545800700343F4004343F0C00320F822300A7875
:1054680030F822309BB223F4E04323F0400343F4A6
:10547800004343F0800320F82230002070470A7868
:1054880030F8223013F4804F0CD030F822309BB221
:1054980023F4E04323F0700343F4404343F08003D4
:1054A80020F822300A7830F822309BB223F4804367
:1054B80023F0700343F4004343F0800320F82230C4
:1054C800DBE74B78002B4ED10A7830F8223013F402
:1054D800804F0CD030F822309BB223F4E04323F005
:1054E800700343F4404343F0800320F822300A78E5
:1054F80030F8223013F0400F0CD030F822309BB235
:1055080023F4E04323F0700343F4004343F0C00363
:1055180020F822300A7830F822309BB223F4E04396
:1055280023F0700343F4004343F0C00320F8223013
:105538000B7830F8232092B222F4804222F07002D5
:1055480048F2800C42EA0C0220F823200A7830F84E
:1055580022309BB223F4E04323F0400343EA0C03D8
:1055680020F8223089E70A7830F8223013F4804F87
:105578000CD030F822309BB223F4E04323F07003C0
:1055880043F4404343F0800320F822300A7830F88F
:10559800223013F0400F0CD030F822309BB223F4A5
:1055A800E04323F0700343F4004343F0C00320F8C2
:1055B80022300A7830F822309BB223F4E04323F0FB
:1055C800700343F4404343F0800320F822300B7803
:1055D80030F8232092B222F4E04222F0400248F24E
:1055E800800C42EA0C0220F823200A7830F8223096
:1055F8009BB223F4804323F0700343EA0C0320F8A2
:1056080022303AE74B788BB10A7830F822309BB2D7
:1056180023F4E04323F0400383F0100343F40043F2
:1056280043F0800320F82230002070470A7830F8D1
:1056380022309BB223F4804323F0700383F4805319
:1056480043F4004343F0800320F82230ECE70B7B5F
:10565800002B4BD14B7833B30A7830F8223013F053
:10566800400F0CD030F822309BB223F4E04323F0F3
:10567800700343F4004343F0C00320F82230CB7892
:10568800012B33D00A7830F822309BB223F4E04360
:1056980023F0400383F0200343F4004343F08003E6
:1056A80020F8223022E00A7830F8223013F4804FB4
:1056B8000CD030F822309BB223F4E04323F070037F
:1056C80043F4404343F0800320F822300A7830F84E
:1056D80022309BB223F4804323F0700383F44053B9
:1056E80043F4004343F0800320F822300020704741
:1056F80011B98023A0F84C30002070470020704773
:1057080000207047B0F8440080B27047002070470E
:1057180010B45C1C640800EB420202F5806207E0EA
:105728000B78487843EA002322F8043B0231013C15
:10573800002CF5D110BC704770B505460C464A7868
:10574800012A3BD00B7B002B40F0A6828B690A69AB
:10575800934240F284829B1A8B61B5F850309BB219
:105768002B44217803EB0113B3F80C14C1F309019E
:10577800A3F80C143E2A40F27682510912F01F0F4A
:1057880000D10139B3F80C2492B2890289B20A43D4
:1057980042F40042A3F80C24227835F822309BB258
:1057A80023F4804323F0700383F4405343F400430D
:1057B80043F0800325F82230002070BD8E69096906
:1057C8008E4200D90E46237B73B3E378022B4DD06B
:1057D800236A9B1B2362217835F8213013F0400F90
:1057E80000F0F581002A40F0E281B5F850309BB214
:1057F8002B4403EB0113B3F80C24C2F30902A3F8FA
:105808000C243E2E40F2BA81710916F01F0F00D108
:105818000139B3F80C2492B2890289B20A4342F4DE
:105828000042A3F80C24CBE1B6B23346E2886169A2
:105838002846FFF76DFFB5F850309BB22B4422780D
:1058480003EB0213A3F80464227835F822309BB2E4
:1058580023F4E04323F0400383F0300343F4004390
:1058680043F0800325F822300020A6E7236A9942F6
:1058780080F06681227835F822309BB223F4E04329
:1058880023F0700343F4014343F0800325F82230EA
:10589800236A9B1B2362227835F8223013F0400FCD
:1058A80000F0A7806378B3BBB5F850309BB22B44A7
:1058B80003EB0213B3F80C24C2F30902A3F80C2477
:1058C8003E2E0FD9710916F01F0F00D10139B3F818
:1058D8000C2492B2890289B20A4342F40042A3F826
:1058E8000C241AE04EB9B3F80C246FEA42426FEA6E
:1058F800524292B2A3F80C240FE0720816F0010F7E
:1059080000D00132B3F80C1489B2920292B20A4361
:10591800A3F80C2401E0012B30D0B3B2628961698D
:105928002846FFF7F5FE636933446361236A2269F9
:1059380093422DD99B1B23626378002B45D1B5F880
:1059480050309BB22B44227803EB0213B3F80424A3
:10595800C2F30902A3F804243E2E1DD9710916F0DA
:105968001F0F00D10139B3F8042492B2890289B219
:105978000A4342F40042A3F8042428E0B5F8503062
:105988009BB22B4403EB0213B2B2A3F80C24C4E776
:10599800002222621E46CFE74EB9B3F804246FEA0C
:1059A80042426FEA524292B2A3F804240FE072080E
:1059B80016F0010F00D00132B3F8041489B2920234
:1059C80092B20A43A3F8042401E0012B06D0B3B233
:1059D800228961692846FFF79BFE35E7B5F8503004
:1059E8009BB22B44227803EB0213B2B2A3F804242F
:1059F800EDE76378B3BBB5F850309BB22B4403EBAB
:105A08000213B3F80424C2F30902A3F804243E2EB7
:105A18000FD9710916F01F0F00D10139B3F804240A
:105A280092B2890289B20A4342F40042A3F80424DC
:105A38001AE04EB9B3F804246FEA42426FEA5242C0
:105A480092B2A3F804240FE0720816F0010F00D0F8
:105A58000132B3F8041489B2920292B20A43A3F84D
:105A6800042401E0012B30D0B3B2228961692846B1
:105A7800FFF74EFE636933446361236A22699342E8
:105A88002DD99B1B23626378002B45D1B5F8503084
:105A98009BB22B44227803EB0213B3F80C24C2F315
:105AA8000902A3F80C243E2E1DD9710916F01F0F08
:105AB80000D10139B3F80C2492B2890289B20A43A1
:105AC80042F40042A3F80C2428E0B5F850309BB209
